:1000000000308A0061280000FF00030E8301A10078
:100010000A08A0008A010408A2007708A300780853
:10002000A4007908A5007A08A6007B08A70083131E
:1000300083128C308400001F1F280C1B32282208DA
:1000400084002308F7002408F8002508F900260892
:10005000FA002708FB0020088A00210E8300FF0E0B
:100060007F0E09008A110A1235288716C830B000A1
:10007000303084008313000803194B280630F80041
:10008000F701F70B4128F80B40287B30F700F70BFE
:100090004728800B3E2887120C138A110A121F284A
:1000A0000330AF02031C5E282F3084008313000846
:1000B00003195E285C285C28800B5B288A110A12D1
:1000C000C028840183131F30830581308316990073
:1000D000A630980090308312980083161F149F1446
:1000E0001F159F1107309C001F149F141F159F118F
:1000F00083121F1083160912831294120130940088
:1001000000308316940083129001F80092000030B2
:10011000831692009D01831297019D01831687002B
:100120000914891409158600831287018601831634
:100130001F1383121F179F1383169F1383121F14FD
:1001400083161F109F101F119F110C17C0308312B0
:100150008B042830F8001F08C73978049F0021302D
:10016000F700F70BB1281F151F19B4281E08A901A5
:10017000A800280886000230AE00C730AF00502823
:08018000AE0BBD28A9286300A5
:02400E003A393D
:00000001FF
;PIC16F877A
